:100000000C9434000C9451000C9451000C94510049
:100010000C9451000C9451000C9451000C9451001C
:100020000C9451000C9451000C9451000C94DA0083
:100030000C9451000C9451000C9451000C945100FC
:100040000C9451000C9451000C9451000C945100EC
:100050000C9451000C9451000C9451000C945100DC
:100060000C9451000C94510011241FBECFEFD8E026
:10007000DEBFCDBF11E0A0E0B1E0E8EFF8E002C0E4
:1000800005900D92AE30B107D9F721E0AEE0B1E0B6
:1000900001C01D92AD35B207E1F70E94F3030C9445
:1000A0007A040C9400002FEF81EE94E02150804000
:1000B0009040E1F700C00000F6CFF8940E94D00312
:1000C0000E94170381E00E946303892BD9F30E94E9
:1000D0008C030E94E003F6CF2FEF81EE94E02150D5
:1000E00080409040E1F700C00000F6CF2FEF81EE96
:1000F00094E0215080409040E1F700C00000F6CF2E
:100100002FEF81EE94E0215080409040E1F700C055
:100110000000F6CFCF93DF93EFE0F1E021E038EC81
:10012000CAE0D0E0848181112CC08581811129C071
:100130008091840090918500892BC1F040918400CA
:10014000509185006091880070918900349FC001B2
:10015000359F900D11240E940B04CB01BE010E941B
:100160000B04109285001092840002C064E170E0DC
:1001700086819781861B970B97838683892B09F449
:100180002483389681E0E733F80761F680910E0109
:100190008F5F853008F080E098E0899FF00111249E
:1001A000E15FFE4F9481992399F380930E01DF91D3
:1001B000CF9108950F920FB60F921F922F923F92F8
:1001C0004F925F926F927F928F929F92AF92BF9267
:1001D000CF92DF92EF92FF920F931F932F933F9353
:1001E0004F935F936F937F938F939F93AF93BF933F
:1001F000CF93DF93EF93FF938DB79EB7E0910E01FE
:1002000028E0E29FF0011124E15FFE4F9383828397
:100210000E948A00E0910E0188E0E89FF00111241D
:10022000E15FFE4F828193819EBF8DBFFF91EF9171
:10023000DF91CF91BF91AF919F918F917F916F91FE
:100240005F914F913F912F911F910F91FF90EF90F0
:10025000DF90CF90BF90AF909F908F907F906F90E6
:100260005F904F903F902F901F900F900FBE0F9078
:100270001895F894E0910E0198E0E99FF00111249F
:10028000DF01A15FBE4F14961C92EC5EFE4F80838F
:1002900072836183109285001092840078940E948A
:1002A000DA000895FC011092800088E080938100BC
:1002B000E034F105A1F03CF4E830F105C9F4809197
:1002C0008100826013C0E11581E0F80761F0E1155B
:1002D00084E0F80769F480918100856007C080910F
:1002E00081008B6003C080918100846080938100D5
:1002F000A0E8BEE39A01AB010E943E049F01FF0FFC
:10030000440B550B0E941F043093890020938800F2
:10031000109285001092840082E080936F0008950F
:100320002DB73EB748E0849FC0011124FC01E15F76
:10033000FE4F828193819EBF8DBF80819181AC01F0
:1003400055274F93892F99278F930F920FB60F92AE
:100350001F922F923F924F925F926F927F928F9255
:100360009F92AF92BF92CF92DF92EF92FF920F9344
:100370001F932F933F934F935F936F937F938F932D
:100380009F93AF93BF93CF93DF93EF93FF938DB77B
:100390009EB7938382833EBF2DBF08950F931F9313
:1003A000CF93DF9386E790E09093100180930F0145
:1003B0008DE590E0909318018093170180E890E01C
:1003C0009093200180931F018CE690E09093280188
:1003D0008093270183E590E09093300180932F0173
:1003E00080E093E0909312018093110180E094E00B
:1003F00090931A018093190180E095E09093220177
:100400008093210180E096E090932A018093290156
:1004100080E097E090933201809331010FE011E08A
:10042000C0E0D1E08C2F0E949001F801D483CF5F0F
:10043000085F1F4FC530B1F744E150E060E070E065
:1004400080E094E00E9452017894DF91CF911F9157
:100450000F910895239A259A229A389A3B9A519A95
:10046000549A579A24982A9A409A439A599A5C9A8D
:100470005F9A8CB580658CBD0895CF93DF931F92F2
:10048000CDB7DEB769835981FC01408121E030E0BE
:1004900002C0220F331F5A95E2F72095309524238E
:1004A00020830F90DF91CF910895CF93DF931F9218
:1004B000CDB7DEB769835981FC01408121E030E08E
:1004C00001C0220F5A95EAF7242B20830F90DF9169
:1004D000CF9108958EBD0DB407FEFDCF8EB5089562
:1004E000AF92BF92CF92DF92EF92FF920F931F9342
:1004F000CF93DF9328E230E030933B0120933A0121
:1005000010923C0186E290E090933E0180933D0181
:1005100042E040933F01309342012093410133E098
:1005200030934301909345018093440185E080938B
:1005300046018BE290E0909349018093480121E0CD
:1005400020934A0149E250E050934C0140934B0103
:1005500030934D019093500180934F0134E03093DC
:100560005101509353014093520136E030935401AE
:10057000909357018093560187E08093580183E25E
:1005800090E090935A018093590120935B0180E0A1
:1005900091E00E94E703CAE3D1E000E010E087E0C9
:1005A000A82ECC24C394D12CA09EC001A19E900D56
:1005B00011249C01265C3E4F7901F90162818881FA
:1005C00099810E943D0280E00E946A0264E170E02D
:1005D00080E00E94390180E00E946A02B82E80E328
:1005E0008B0D0E94E003BE82F7018281E881F981D0
:1005F0002081A60102C0440F551F8A95E2F7CA0167
:10060000822B80830F5F1F4F27960530110561F6FF
:100610008AE091E00E94E703DF91CF911F910F9153
:10062000FF90EF90DF90CF90BF90AF9008950E9421
:100630002A020C947002EAE3F1E09C012B5F3F4F29
:100640004681DC014D93CD013796A217B307C1F760
:100650000895EAE3F1E020E030E09681981749F050
:100660002F5F3F4F379625303105B9F78FEF9FEF5A
:100670000895C90108951F93CF93DF93162F0E9409
:10068000290327E0AC01249FC001259F900D112470
:10069000EC01C65CDE4F6A81888199810E943D022F
:1006A000812F0E946A024A81E881F981908121E0CC
:1006B00030E001C0220F4A95EAF7292B2083DF9111
:1006C000CF911F9108950E94290327E0AC01249F38
:1006D000C001259F900D1124FC01E65CFE4FA38113
:1006E000B4818C91258190E002C0959587952A95DB
:1006F000E2F781709927089561E081E00E943B0351
:1007000060EA70E080E00E9439016FEF81E00E94B2
:100710003B038093390108956FEF81E00E943B0312
:1007200060EA70E080E00E9439016FEF81E00E9492
:100730003B03809339010895DF92EF92FF920F936C
:100740001F93CF93DF937C01C62F60E081E00E946E
:100750003B0360EA70E080E00E94390160E081E0E4
:100760000E943B03809339018701D0E0C8018E19B4
:100770009F098C179D0764F4D090390160E081E0F7
:100780000E943B0380933901F801D1928F01EECF93
:10079000DF91CF911F910F91FF90EF90DF9008951F
:1007A0001092C50087E68093C40088E18093C10061
:1007B00086E08093C20008958091C0008072089501
:1007C0009091C00095FFFCCF8093C6000895CF9311
:1007D000DF93EC018991882319F00E94E003FACF9E
:1007E000DF91CF9108950E94CE01E0910E0128E0A3
:1007F000E29FF0011124E15FFE4F828193819EBF51
:100800008DBF8FEF91EE24E0815090402040E1F7C2
:1008100000C00000F6CFAA1BBB1B51E107C0AA1FF6
:10082000BB1FA617B70710F0A61BB70B881F991F91
:100830005A95A9F780959095BC01CD010895052E94
:1008400097FB1EF400940E94360457FD07D00E94C7
:10085000490407FC03D04EF40C943604509540959F
:10086000309521953F4F4F4F5F4F0895909580955C
:10087000709561957F4F8F4F9F4F08950E946B0435
:10088000A59F900DB49F900DA49F800D911D1124E4
:100890000895A1E21A2EAA1BBB1BFD010DC0AA1FC1
:1008A000BB1FEE1FFF1FA217B307E407F50720F0D9
:1008B000A21BB30BE40BF50B661F771F881F991F54
:1008C0001A9469F760957095809590959B01AC019D
:1008D000BD01CF010895A29FB001B39FC001A39FA6
:1008E000700D811D1124911DB29F700D811D112469
:0808F000911D0895F894FFCF5B
:0E08F800446576696365203A20000D0A000011
:00000001FF
