:100000000C9434000C943E000C943E000C943E0082
:100010000C943E000C943E000C943E000C943E0068
:100020000C943E000C943E000C943E000C943E0058
:100030000C943E000C943E000C943E000C943E0048
:100040000C943E000C943E000C943E000C943E0038
:100050000C943E000C943E000C943E000C943E0028
:100060000C943E000C943E0011241FBECFEFD8E04C
:10007000DEBFCDBF0E948C000C94AD000C9400003C
:10008000239A259A229A389A3B9A519A549A579AC7
:1000900024982A9A409A439A599A5C9A5F9A8CB506
:1000A00080658CBD8CB582608CBD8CB581608CBD4B
:1000B0000895CF93DF931F92CDB7DEB7698359813F
:1000C000FC01408121E030E002C0220F331F5A952D
:1000D000E2F720953095242320830F90DF91CF9174
:1000E0000895CF93DF931F92CDB7DEB7698359810F
:1000F000FC01408121E030E001C0220F5A95EAF76F
:10010000242B20830F90DF91CF9108958EBD0DB4E5
:1001100007FEFDCF8EB508950E944000439886E704
:100120000E948600C0E08C2F0E9486002FEF83ED96
:1001300090E3215080409040E1F700C00000CF5F85
:10014000CA3089F7439A2FEF80E792E02150804030
:0E0150009040E1F700C00000E1CFF894FFCF2F
:00000001FF
