:100000000C9434000C943E000C943E000C943E0082
:100010000C943E000C943E000C943E000C943E0068
:100020000C943E000C943E000C943E000C94C100D5
:100030000C943E000C943E000C943E000C943E0048
:100040000C943E000C943E000C943E000C943E0038
:100050000C943E000C943E000C943E000C943E0028
:100060000C943E000C943E0011241FBECFEFD8E04C
:10007000DEBFCDBF0E94DC000C94DF000C940000BA
:10008000CF93DF931F92CDB7DEB769835981FC010F
:10009000408121E030E001C0220F5A95EAF7242B7D
:1000A00020830F90DF91CF910895CF93DF931F921C
:1000B000CDB7DEB769835981FC01408121E030E092
:1000C00002C0220F331F5A95E2F720953095242362
:1000D00020830F90DF91CF910895CF93DF931F92EC
:1000E000CDB7DEB769835981FC01408121E030E062
:1000F00001C0220F5A95EAF7242720830F90DF9141
:10010000CF9108952FEF81EE94E0215080409040F0
:10011000E1F700C000005F9A2FEF81EE94E02150DC
:1001200080409040E1F700C000005F9808952FEFF5
:1001300081EE94E0215080409040E1F700C0000043
:10014000599A2FEF81EE94E0215080409040E1F7E2
:1001500000C00000599808952FEF81EE94E02150DF
:1001600080409040E1F700C000005C9A2FEF81EEE4
:1001700094E0215080409040E1F700C000005C987E
:1001800008958BB180588BB91895F894579A519A65
:10019000549A5F9859985C9882E08093800095E02B
:1001A0009093810028E03DE33093890020938800FC
:1001B00080936F00789408950E94C500FFCFF89453
:0201C000FFCF6F
:00000001FF
