:1000000031C100004BC1000049C1000047C10000E0
:1000100045C1000043C1000041C100003FC10000D4
:100020003DC100003BC100000C94B70837C100007F
:1000300035C1000033C1000031C100002FC10000F4
:100040002DC100002BC1000029C1000027C1000004
:1000500025C1000023C1000021C100001FC1000014
:1000600017C500001BC1000019C1000017C1000026
:1000700015C1000013C1000011C100000FC1000034
:100080000DC100000BC1000009C1000007C1000044
:1000900005C1000003C100001B5B33316D44657670
:1000A00020456E756D204572726F720D0A202D2DE0
:1000B000204572726F7220436F64652025640D0ABB
:1000C000202D2D20537562204572726F7220436F70
:1000D00064652025640D0A202D2D20496E2053745F
:1000E0006174652025640D0A1B5B33376D001B5B53
:1000F00033316D486F7374204D6F646520457272A3
:100100006F720D0A202D2D204572726F7220436F81
:1001100064652025640D0A1B5B33376D004B6579E0
:10012000626F61726420456E756D6572617465649D
:100130002E0D0A001B5B33316D436F6E74726F6C52
:10014000204572726F7220285365742050726F744C
:100150006F636F6C292E0D0A202D2D204572726F52
:100160007220436F64653A2025640D0A1B5B3337A8
:100170006D001B5B33316D436F6E74726F6C204585
:1001800072726F72202853657420436F6E666967C0
:1001900075726174696F6E292E0D0A202D2D204510
:1001A00072726F7220436F64653A2025640D0A1BDA
:1001B0005B33376D00202D2D204572726F72204306
:1001C0006F64653A2025640D0A1B5B33376D001B95
:1001D0005B33316D496E76616C6964204465766984
:1001E00063652E0D0A001B5B33316D436F6E7472B5
:1001F0006F6C204572726F72202847657420436FC0
:100200006E66696775726174696F6E292E0D0A00DA
:1002100047657474696E6720436F6E666967204432
:100220006174612E0D0A001B5B33326D4465766983
:10023000636520556E61747461636865642E0D0A90
:100240001B5B33376D001B5B33326D44657669632E
:10025000652041747461636865642E0D0A1B5B330D
:10026000376D000011241FBECFEFD0E1DEBFCDBF40
:1002700011E0A0E0B1E0E0E7FDE102C005900D92E1
:10028000A232B107D9F722E0A2E2B1E001C01D928B
:10029000A135B207E1F725D20C94B60EB1CE9BB1D1
:1002A0009F70892B8BB9089584B7877F84BF0FB661
:1002B000F894A89580916000886180936000109206
:1002C00060000FBE90E080E80FB6F8948093610064
:1002D000909361000FBE87E690E09093CD008093ED
:1002E000CC0086E08093CA001092C80088E1809319
:1002F000C900539A5A9A20D780E090E00C94640B7E
:1003000086E492E00E94CC0B80EAC9CF87E292E0BB
:100310000E94CC0B80E1C3CFCF9380E192E00E949A
:10032000CC0BFED1C82F8823B9F0813019F486EEAA
:1003300091E002C08FEC91E00E94CC0B1F92CF9312
:1003400085EB91E09F938F930E94A90B0F900F90E4
:100350000F900F9080E932C081E00E940D0B88233E
:1003600029F01F928F9382E791E0ECCF88E0E9E0DB
:10037000F1E0A4E3B2E001900D928A95E1F71092CA
:10038000A70080E090E00E94160A882391F01F9257
:100390008F9384E391E09F938F930E94A90B80E950
:1003A0007EDF0F900F900F900F9080E0CF910C9414
:1003B0000D0B8DE191E00E94CC0B80E6CF916FCFC9
:1003C000C82F52D61F92CF938EEE90E09F938F93BB
:1003D0000E94A90B80E963DF0F900F900F900F90A0
:1003E000FFCF90913C021F929F931F926F931F9299
:1003F0008F9388E990E09F938F930E94A90B8DB70C
:100400009EB708960FB6F8949EBF0FBE8DBF80E9C9
:1004100046CF9FEB980F9A3110F4805E0895853394
:10042000C9F1D0F4803309F43FC068F48B3209F489
:100430004FC020F4853209F441C008958E32C1F1D5
:100440008F32C1F108958233F9F008F443C0833349
:10045000E9F08433E9F008958F3341F140F48733B4
:10046000E9F0D0F08833E1F08933E1F00895883A7B
:1004700049F128F4833A41F1873AF1F00895803B3D
:1004800029F1853BE9F0089589EE089582E2089507
:1004900087E2089588E208958DE2089588EE089530
:1004A0008FE5089587EE089580EE08958CE2089513
:1004B0008BE308958AE3089581E2089589EF089512
:1004C0008AE208958EE5089584E2089589E2089508
:1004D0008DE3089586E20895CF939CEF980F9A31AB
:1004E00010F4CDE305C092EE980F993030F4C3E1DB
:1004F000C80FC13409F049C078C0873209F4A0C0E0
:100500008C3209F49FC0883209F49EC08B3209F402
:100510009DC08C3409F49CC0863309F454C08733E1
:1005200009F453C0883309F452C0833309F451C02D
:10053000843309F450C0823309F44FC08F3209F478
:100540004EC0803309F44DC08E3209F483C08D3221
:1005500009F449C08A3209F47FC0893209F47EC0A7
:10056000893309F07DC08091240190912501892B68
:1005700029F0109225011092240172C081E090E0D0
:1005800090932501809324016BC0C23458F4CC337E
:10059000D1F018F4CA33E9F029C0CE33B1F0CF332B
:1005A000B1F024C0C13559F020F4CD34F9F4CFE3D3
:1005B0001DC0C73531F0CA35C9F4C7E517C0C1E45D
:1005C00015C0CAE513C0CEE211C0CFE20FC0C7EA22
:1005D0000DC0CDE40BC0C5E209C0C5EB07C0C8EA39
:1005E00005C0C3EA03C0C0EB01C0C1E5627239F0C7
:1005F00081E090E0909323018093220104C0109247
:1006000023011092220180912401909125010097ED
:1006100039F48091220190912301892B61F408C063
:10062000019749F48091220190912301892B19F0BF
:100630008C2FEFDEC82F8C2F78D18C2FCF9125C235
:10064000C0E3D4CFC0E2D2CFCAE0D0CFC9E0CECF92
:10065000CFE7CCCFCBE2CACFC8E0C8CFCBE1C6CF83
:10066000C0E0C4CFCF93DF93CDB7DEB728970FB6E6
:10067000F894DEBF0FBECDBF80913C028B3041F5B8
:1006800081E08093A7008091A9008F7B8093A900CF
:100690008091A60080FF17C08091A60085FF0EC044
:1006A00040E050E068E070E0CE010196E4D38B8139
:1006B000882319F0698110DF01C066D18091A600FE
:1006C0008E778093A6008091A90080648093A90012
:1006D00028960FB6F894DEBF0FBECDBFDF91CF9145
:1006E0000895E2DDA8D0BEDFBFD7FDCFFC01818138
:1006F000843041F48581833029F48781813011F47D
:1007000080E0089582E00895FC018181853021F028
:10071000843021F082E0089580E0089581E008951A
:10072000CF92DF92EF92FF920F931F93CF93DF93BD
:10073000CDB7DEB7C450D2400FB6F894DEBF0FBEBF
:10074000CDBFAE014F5F5F4FCD5FDD4F5983488313
:10075000C350D24020E032E0BE016F5F7D4F81E0A8
:10076000B3D5853009F444C0863029F0811105C025
:10077000C12CD12C21C013E03EC011E03CC044E8A4
:1007800053E0BE016D5F7D4FCE018F5F9D4FF5D56C
:10079000182F8823A9F046E753E0BE016D5F7D4F17
:1007A000CE018F5F9D4FE9D5811124C0CD5FDD4F14
:1007B000C880D980C350D240C114D10401F7EBCF17
:1007C000CD5FDD4FE880F980C350D240F701428110
:1007D00047FFF2CFE114F10479F32481358101E080
:1007E00063E081E897D3F70186818093AD0003C071
:1007F00012E001C014E0812FCC5FDD4F0FB6F894FA
:10080000DEBF0FBECDBFDF91CF911F910F91FF9043
:10081000EF90DF90CF900895239A22982198209806
:100820008CB580648CBD8CB58F7E8CBD8CB580689A
:100830008CBD7894089580E090E061E070E0FC0168
:10084000E050FF4F208147B1FB0102C0EE0FFF1FB8
:100850002A95E2F79F01242B27B90196883091054C
:1008600071F78FEF9FEF9093300180932F0190935A
:10087000320180933101249A2C9810922B0110920E
:100880002A01CADF78940895809131019091320154
:1008900001966FEF70E036D7AC0181E020912F0117
:1008A000309130014217530709F080E008952091FC
:1008B0002F01309130012F3F8FEF380751F0809199
:1008C000310190913201821793070CF08F5F821BE8
:1008D000089580E0089580912F01909130018F3F1D
:1008E0002FEF920701F1FC01E15DFE4F2481409161
:1008F0003101509132014817590759F48FEF9FEF9A
:100900009093300180932F019093320180933101B5
:1009100008C001966FEF70E0F5D690933001809398
:100920002F01822F089580E0089520E030E090E0CC
:1009300061E070E0F901E050FF4FAC01022E02C00F
:10094000559547950A94E2F740FF0BC04081E8B106
:10095000DB0102C0AA0FBB1F4A95E2F7AD014E2B87
:100960000CC04081E8B1DB0102C0AA0FBB1F4A9551
:10097000E2F7AD01409550954E2348B92F5F3F4FA8
:1009800028303105B9F6089520E030E061E070E0EC
:10099000F901E050FF4F808148B1FB0102C0EE0F2A
:1009A000FF1F8A95E2F7CF0180959095842388B93F
:1009B0002F5F3F4F2830310559F708958EB58823B2
:1009C00019F0813021F01DC081E08EBD0895809125
:1009D0002A0190912B01892B49F469DF8EBD81E0BA
:1009E00090E090932B0180932A01089574DF8EBDCF
:1009F0005EDF81110CC02C9810922B0110922A01FD
:100A0000089569DF8EBD53DF811101C02C980895D0
:100A1000CF93DF93C82F81E090E0909329018093DA
:100A2000280132DF81112EC0809131019091320175
:100A300001966FEF70E066D690933201809331019A
:100A4000FC01E15DFE4FC48380912F019091300144
:100A5000019621F41092300110922F01C0E0D0E0F5
:100A60008091260190912701C817D9071CF4A6DFB1
:100A70002196F6CF1092270110922601109229019B
:100A800010922801DF91CF910895C2DF2C9A08952A
:100A90001F920F920FB60F9211242F933F934F93F3
:100AA0005F936F937F938F939F93AF93BF93EF93D6
:100AB000FF938091280190912901892B51F0809119
:100AC000260190912701019690932701809326019A
:100AD00001C074DFFF91EF91BF91AF919F918F9112
:100AE0007F916F915F914F913F912F910F900FBE2A
:100AF0000F901F90189580919E0081709091A0009A
:100B00009D7F9093A00090919E00926090939E0094
:100B100090919E0091FDFCCF90919E0091609093EA
:100B20009E00109232029091A00090722091A0003D
:100B30002F7D2093A00020919F002F7D20939F0068
:100B40002AE030919F0035FF0BC020919F002F7D40
:100B500020939F0020919F002D7F20939F0008C02D
:100B6000EFE9FFE03197F1F700C00000215049F7AD
:100B7000992329F09091A00090629093A000811198
:100B800005C080919E008E7F80939E008091A00082
:100B900082608093A000089520919E002170909122
:100BA000A00090723091A0003F7D3093A000309162
:100BB0009F003F7D30939F0030919E0031603093C5
:100BC0009E00882339F130919F0035FF06C0309197
:100BD0009F003F7D30939F00815030913C02313027
:100BE000C1F03091A60034FF09C01092F500809149
:100BF000A6008F7E8093A60082E00CC03091A600F4
:100C000031FFDFCF8091A6008D7F8093A60083E027
:100C100001C081E0211105C020919E002E7F20930C
:100C20009E00992329F09091A00090629093A000DB
:100C300008950F931F93CF93DF93CDB7DEB7289717
:100C40000FB6F894DEBF0FBECDBF80913C02853059
:100C500009F49CC068F48230E1F118F48823D9F0DB
:100C6000FFC0833009F43FC0843009F467C0F8C086
:100C7000873009F4A6C008F496C0883009F4BFC0D4
:100C8000893009F0EDC081E08093A1008AE0809373
:100C90003C0242DBE5C000912D0110912E010115AF
:100CA000110509F4DDC081E077DF882331F09091F0
:100CB0002C0190933C0291E0C5C0015011091093A2
:100CC0002E0100932D01012B09F0CAC080912C0147
:100CD00007C088EE93E090932E0180932D0183E06E
:100CE00080933C02BDC080912D0190912E019C010A
:100CF0002150310930932E0120932D01892B39F099
:100D00008FE99FE00197F1F700C00000A9C0779834
:100D10008091D80080618093D8008091DD008B7F26
:100D20008093DD008091D70080618093D70080910F
:100D3000DD0082608093DD0084E0D2CF80919F004F
:100D400080FF8EC080919F008E7F80939F00809156
:100D50009F008D7F80939F008091DF008D7F809327
:100D6000DF008091DE0082608093DE0080919E0033
:100D7000816080939E0036D110923C0284E690E020
:100D800090932E0180932D0185E00AC0B4DE10926D
:100D90003C0288EC90E090932E0180932D0186E038
:100DA00080932C015DC001E020E430E040E060E091
:100DB00080E0B0D0811103C080E094E043C087E0C0
:100DC0008FCF88E0E1E1F1E0A4E3B2E001900D9281
:100DD0008A95E1F71092A700CE01019627D38111E1
:100DE00030C088858093080186DE10923C0288EC32
:100DF00090E090932E0180932D0188E0D1CF209137
:100E0000080130E001E040E060E080E083D088232A
:100E100099F288E0E9E1F1E0A4E3B2E001900D92FB
:100E20008A95E1F780E090E001D381110AC0109229
:100E30003C0284E690E090932E0180932D0189E09E
:100E4000AFCF93E020913C02213051F0682F892FE1
:100E5000C8DA8091DD0081608093DD0057DA1CD113
:100E600028960FB6F894DEBF0FBECDBFDF91CF91AD
:100E70001F910F910895CF92DF92EF92FF920F93FF
:100E80001F93CF93DF93EC018B017A018091AA002D
:100E90008F7C80618093AA00B9D0811132C0E114A7
:100EA000F10439F0F70180819181081B190BC80FFB
:100EB000D91FC12CD12C0115110511F18091A6006B
:100EC00085FD15C08091A6008E778093A600E11461
:100ED000F10449F0F70180819181C80ED91ED182B9
:100EE000C08284E00EC092D0882329F30AC080918A
:100EF000AF00899301501109FFEFCF1ADF0ADBCF52
:100F000080E0DF91CF911F910F91FF90EF90DF90E4
:100F1000CF9008950F93F901382F3F7087FD02C0DD
:100F200080E201C080E1373010F080E059C06111EB
:100F300001C080E090E4699FB00111244F70642BE0
:100F4000682B023010F0B6E001C0B2E0932F90930E
:100F5000A700391313C048E050E080E04E175F0748
:100F600038F08295807F8B2BA62F50E070E00EC06A
:100F70008530B9F38F5F440F551FF0CFA091AA00C1
:100F80008091AB007091AD005091AE0081FD07C023
:100F90009F5F9730E1F63093A70081E021C0209158
:100FA000A9002E7F2093A9002091AB002D7F2093D4
:100FB000AB004091A90041604093A900A093AA0012
:100FC0008093AB007093AD005093AE008091A90068
:100FD00080628093A9008091AC0087FDD9CFA5CF16
:100FE0000F9108951092F80080E08093A70010926E
:100FF000AE001092A6001092AB009091A9009E7FC7
:101000009093A9008F5F873081F708954091A200E7
:101010005091A30085E69091AA009073903129F435
:101020009091A60090FF05C019C09091A60092FD76
:1010300015C09091A60091FD13C090913C02913093
:1010400089F02091A2003091A3004217530719F3B1
:10105000815011F0A901DFCF83E0089580E0089569
:1010600081E0089582E0089575D07CD0E0EEF0E054
:10107000808181608083E8EDF0E080818F778083DC
:1010800019BCA7EDB0E08C918E7F8C9380818F7E10
:1010900080831092330208955DD064D08091D8008F
:1010A0008F778093D8008091D80080688093D80093
:1010B0008091D8008F7D8093D8008091D7008F7762
:1010C0008093D70088E189BD8AE189BD09B400FE1B
:1010D000FDCF81E080933C021092320280E4809345
:1010E00008018091D80080648093D8008091DD0051
:1010F00081608093DD008091DD0084608093DD005D
:101100008091D7008F7E8093D7006F9A779A8091D5
:10111000DE0081608093DE008091DE008460809339
:10112000DE008091E0008E7F8093E0008091D80007
:1011300080618093D8000895E8EDF0E080818F7E93
:101140008083E7EDF0E080818160808381E080939F
:101150003302A2CFE8EDF0E080818C7F8083109293
:10116000A00008951092DA0010929F0008951F9237
:101170000F920FB60F9211242F933F934F935F93CB
:101180006F937F938F939F93AF93BF93EF93FF934F
:1011900080919F0085FF0AC08091A00085FF06C056
:1011A00080919F008F7D80939F0019D180919F0037
:1011B00081FF15C08091A00081FF11C080919F0028
:1011C0008D7F80939F0080919F008E7F80939F00F2
:1011D0008091A0008D7F8093A00098D85DDF8091E2
:1011E000DF0081FF15C08091DE0081FF11C080917A
:1011F000DF008D7F8093DF0077988091DD00816034
:101200008093DD0080E0DCD881D881E080933C02CF
:101210008091DF0080FF17C08091DE0080FF13C047
:101220008091DF008E7F8093DF008091DE008E7FD3
:101230008093DE0065D88091A00082608093A0003A
:1012400082E080933C028091DF0082FF0EC080919B
:10125000DE0082FF0AC08091DF008B7F8093DF0079
:1012600060E082E0BED852D817DFFF91EF91BF91C6
:10127000AF919F918F917F916F915F914F913F912E
:101280002F910F900FBE0F901F901895CF93DF9363
:10129000DC01EB01E881F98120818D919C9111970E
:1012A00030E08217930708F49C01E20FF31FEB0173
:1012B000F983E8838D919C911197821B930B8D93F9
:1012C0009C93DF91CF910895CF92DF92EF92FF929E
:1012D0000F931F93CF93DF93CDB7DEB729970FB648
:1012E000F894DEBF0FBECDBF6B018A01790190E893
:1012F0009093340296E09093350290E001979260CB
:10130000909337028093360210923902109238027D
:1013100089E090E090933B0280933A021092A700FC
:10132000CE01019683D0811119C08B819C81F60179
:1013300091838083E816F90670F090933B028093C6
:101340003A02C80173D0811109C0F801818182304D
:1013500021F480E003C085E001C086E029960FB645
:10136000F894DEBF0FBECDBFDF91CF911F910F91DB
:10137000FF90EF90DF90CF900895AF92BF92CF9201
:10138000DF92EF92FF920F931F93CF93DF938C0125
:10139000EB016A01F801E080F180E114F10499F0B9
:1013A000A880B980BE01C80171DF88819981F601EA
:1013B0000995823079F3813039F4B982A882F80135
:1013C000F182E08201C082E0DF91CF911F910F9105
:1013D000FF90EF90DF90CF90BF90AF900895089569
:1013E0001F93CF93DF93182FC9EED3E011110CC0D8
:1013F0008091A60083FD15C081E0CEDB811112C073
:101400002197A1F784E00EC0113029F48091A60045
:1014100080FFF2CF06C0123079F78091A60082FFDC
:10142000EBCF80E0DF91CF911F910895FF920F9352
:101430001F93CF93DF938C0180919E008170F82ED3
:10144000C0913A02D0913B0280919E0081608093CE
:101450009E0081E0A1DB8111C9C08091AA008F7C30
:101460008093AA001092F5008091A6008F7E809351
:10147000A6008091A9008F7B8093A900E4E3F2E0AD
:101480008CE392E021912093AF008E179F07D1F754
:101490008091A60087778093A60080E0A1DF81116C
:1014A000A5C08091A90080648093A90081E074DBCD
:1014B00081119CC08091340287FF4EC08091AA00A8
:1014C0008F7C80618093AA000115110509F03AC054
:1014D0008091AA008F7C80628093AA008091A900ED
:1014E0008F7B8093A90082E07BDF81117FC0809198
:1014F000A6008B778093A60082E072DF77C0809190
:10150000A9008F7B8093A90081E06ADF81116EC002
:101510008091F6009091F700892B11F4C0E0D0E0A3
:10152000F8018F018091F6009091F700892B69F402
:101530008091A90080648093A9008091A6008E7795
:101540008093A6002097D9F6C3CF209789F3809186
:10155000AF0081932197E5CF0115110591F180919D
:10156000AA008F7C80628093AA008091A9008F7B63
:101570008093A90082E02097E1F032DF811136C02C
:101580002091F6003091F7008091080190E0281733
:10159000390748F40F5F1F4FF8013197808180931E
:1015A000AF00219769F78091A6008B778093A60002
:1015B000E1CF16DF81111AC08091A9008064809369
:1015C000A9008091AA008F7C80618093AA008091FD
:1015D000A9008F7B8093A90081E002DF811106C002
:1015E0008091A6008E778093A60080E09091A9005C
:1015F00090649093A900F11005C090919E009E7F89
:1016000090939E0091E09093A8001092A800DF9123
:10161000CF911F910F91FF900895CF93C82F1092F3
:10162000340289E0809335028C2F90E0909337024A
:1016300080933602109239021092380210923B02C7
:1016400010923A021092A70080E090E0EFDE811144
:1016500009C0C0933202C11102C09AE001C09BE0F0
:1016600090933C02CF910895CF93DF93C091A70050
:10167000CF708091AA00D82FD17080FDD0E8109251
:10168000A700D7DACD2BCF70C093A700DF91CF9101
:1016900008959091C80095FFFCCF8093CE0080E024
:1016A00090E008958091C80087FF08C08091C8002D
:1016B00087FF07C08091CE0090E008958EEF9FEFE6
:1016C00008958FEF9FEF0895FC01892B59F48DE366
:1016D00092E090934C0280934B0290934E02809341
:1016E0004D02FC018EE0DF011D928A95E9F783E04F
:1016F000838389E49BE09187808782E59BE09387E1
:101700008287089597FB072E16F4009406D077FD84
:1017100008D00BD007FC05D03EF4909581959F4FE3
:101720000895709561957F4F0895AA1BBB1B51E1E9
:1017300007C0AA1FBB1FA617B70710F0A61BB70B41
:10174000881F991F5A95A9F780959095BC01CD01E6
:101750000895A0E0B0E0EEEAFBE0DFC2AE01495F31
:101760005F4FDA016D917D91AD010BE412E0F8015C
:1017700082819381DC0113962C9113972860139634
:101780002C933BD0D8011296ED91FC9113972381B5
:10179000277F2383E4E0DDC20F931F93CF93DF9372
:1017A0008C01E0914D02F0914E02838181FF1BC0BC
:1017B000D0E0C0E0F801849160914D0270914E023A
:1017C000DB011896ED91FC911997882341F009955A
:1017D000892B11F0DFEFCFEF0F5F1F4FEBCF8AE0C8
:1017E0000995892B19F08FEF9FEF02C08D2F9C2F49
:1017F000DF91CF911F910F910895ABE0B0E0E2E04F
:10180000FCE07DC26C017B018A01FC01178216821B
:10181000838181FFBFC1CE0101963C01F601938116
:10182000F70193FD859193FF81917F01882309F44E
:10183000ADC1853239F493FD859193FF81917F018C
:10184000853221F4B60190E0C0D1E8CF912C212C53
:10185000312CFFE1F315D8F08B3279F038F4803277
:1018600079F08332A1F4232D20611DC08D3261F007
:10187000803369F4232D216016C0832D8260382EB9
:10188000E32DE4603E2E2AC0F32DF8601DC037FC26
:101890002DC020ED280F2A3040F08E32B9F436FCEE
:1018A00075C1232D2064322E19C036FE06C08AE091
:1018B000989E200D1124922E11C0EAE02E9E200D3C
:1018C0001124222EF32DF0623F2E08C08C3621F415
:1018D000832D8068382E02C0883641F4F70193FDCD
:1018E000859193FF81917F018111B3CF982F9F7DC7
:1018F0009554933028F40C5F1F4F9FE399830DC0DC
:10190000833631F0833771F0833509F055C020C03C
:10191000F801808189830E5F1F4F88248394912C66
:10192000530112C02801F2E04F0E511CF801A080B3
:10193000B18036FE03C0692D70E002C06FEF7FEF0B
:10194000C50138D14C018201F32DFF773F2E15C020
:10195000280122E0420E511CF801A080B18036FE21
:1019600003C0692D70E002C06FEF7FEFC50117D192
:101970004C01F32DF0683F2E820133FC19C0822DFB
:1019800090E088169906A0F4B60180E290E01DD19F
:101990002A94F5CFF50137FC859137FE81915F01DF
:1019A000B60190E012D121102A9421E0821A910808
:1019B0008114910479F7E1C0843611F0893639F544
:1019C000F80137FE07C060817181828193810C5FCD
:1019D0001F4F08C060817181072E000C880B990B86
:1019E0000E5F1F4FF32DFF763F2E97FF09C0909596
:1019F0008095709561957F4F8F4F9F4FF0683F2E78
:101A00002AE030E0A3011DD1882E861844C0853716
:101A100031F4232D2F7EB22E2AE030E025C0932D05
:101A2000997FB92E8F36C1F018F4883579F0AEC0A1
:101A3000803719F0883721F0A9C0E92FE061BE2E68
:101A4000B4FE0DC0FB2DF460BF2E09C034FE0AC0E9
:101A5000292F2660B22E06C028E030E005C020E124
:101A600030E002C020E132E0F801B7FE07C060813B
:101A70007181828193810C5F1F4F06C060817181EB
:101A800080E090E00E5F1F4FA301DBD0882E861808
:101A9000FB2DFF773F2E36FE0DC0232D2E7FA22E6D
:101AA000891458F434FE0BC032FC09C0832D8E7E9D
:101AB000A82E05C0B82CA32C03C0B82C01C0B92C8B
:101AC000A4FE0FC0FE01E80DF11D8081803321F4DA
:101AD0009A2D997EA92E09C0A2FE06C0B394B39494
:101AE00004C08A2D867809F0B394A3FC10C0A0FE30
:101AF00006C0B21480F4280C922C9B180DC0B214AE
:101B000058F4B60180E290E060D0B394F8CFB214FC
:101B100018F42B1802C0982C212CA4FE0FC0B6017B
:101B200080E390E052D0A2FE16C0A1FC03C088E77B
:101B300090E002C088E590E0B6010CC08A2D86785E
:101B400051F0A1FE02C08BE201C080E2A7FC8DE251
:101B5000B60190E03AD0891430F4B60180E390E009
:101B600034D09A94F8CF8A94F301E80DF11D808166
:101B7000B60190E02AD08110F6CF222009F44ECE93
:101B8000B60180E290E021D02A94F7CFF601868159
:101B9000978102C08FEF9FEF2B96E2E1CCC0FC0152
:101BA0000590615070400110D8F7809590958E0F88
:101BB0009F1F0895FC016150704001900110D8F7FB
:101BC000809590958E0F9F1F08950F931F93CF932D
:101BD000DF93FB01238121FD03C08FEF9FEF2CC01A
:101BE00022FF16C046815781248135814217530751
:101BF00044F4A081B1819D012F5F3F4F3183208349
:101C00008C93268137812F5F3F4F3783268314C003
:101C10008B01EC01FB010084F185E02D0995892BF6
:101C2000E1F6D80116968D919C911797019617961B
:101C30009C938E931697CE01DF91CF911F910F91B8
:101C40000895FA01AA27283051F1203181F1E89452
:101C50006F936E7F6E5F7F4F8F4F9F4FAF4FB1E09F
:101C60003ED0B4E03CD0670F781F891F9A1FA11D9A
:101C7000680F791F8A1F911DA11D6A0F711D811D9B
:101C8000911DA11D20D009F468943F912AE0269F60
:101C900011243019305D3193DEF6CF010895462FBF
:101CA0004770405D4193B3E00FD0C9F7F6CF462FA0
:101CB0004F70405D4A3318F0495D31FD4052419309
:101CC00002D0A9F7EACFB4E0A695979587957795C6
:101CD0006795BA95C9F700976105710508959B014D
:101CE000AC010A2E06945795479537952795BA95D6
:101CF000C9F7620F731F841F951FA01D08952F92AF
:101D00003F924F925F926F927F928F929F92AF928B
:101D1000BF92CF92DF92EF92FF920F931F93CF93D8
:101D2000DF93CDB7DEB7CA1BDB0B0FB6F894DEBF6F
:101D30000FBECDBF09942A88398848885F846E8495
:101D40007D848C849B84AA84B984C884DF80EE80DF
:101D5000FD800C811B81AA81B981CE0FD11D0FB6E8
:101D6000F894DEBF0FBECDBFED010895F894FFCF0C
:101D7000070605040302010040210B0000000000DB
:101D800000800600010000080000050100000000BE
:021D9000000051
:00000001FF
